:10000000B8200020450B0000410B0000410B000010
:1000100000000000000000000000000000000000E0
:10002000000000000000000000000000410B000084
:100030000000000000000000410B0000410B000028
:10004000410B0000410B0000410B0000410B000080
:10005000D5050000410B0000410B0000410B0000E2
:10006000410B0000410B0000410B0000410B000060
:10007000410B0000410B0000410B0000410B000050
:10008000410B0000410B000039050000490500004C
:10009000590500006905000079050000410B0000CA
:1000A000410B0000410B0000410B0000410B000020
:1000B0000000000010B5064C2378002B07D1054B3B
:1000C000002B02D0044800E000BF0123237010BDC4
:1000D0000400002000000000E80E0000084B10B5EE
:1000E000002B03D00749084800E000BF0748036819
:1000F000002B00D110BD064B002BFBD09847F9E731
:100100000000000008000020E80E0000E80E0000DB
:1001100000000000044A137802210B431370537847
:100120005BB2002BFBDB70470018004000B583B0CA
:10013000124A936940210B43936101A900230B707C
:1001400005200F4B984705200E4B98470E4A137811
:1001500001210B43137053785BB2002BFBDB0B4B7D
:1001600019004031002204C39942FCD11022084BEF
:100170001A60084B984703B000BDC0460004004019
:100180001D0A0000910900000018004044000020F2
:1001900000E100E01501000000230360436001223C
:1001A0000272427283720233C3727047F0B583B039
:1001B00005000C0001A900234B70CB7023790B7054
:1001C000237A8B702078154B984700201F2D00D87C
:1001D000134807222A409200E77AA37A002B01D025
:1001E00008231F43EB089B00C31899690F2696400C
:1001F000B14397403A000A439A61637A002B06D1D3
:1002000043690122AA409343436103B0F0BD4269B0
:100210000123AB4013434361F7E7C046E10A000006
:100220000018004030B587B001A90C4B0A0032CB52
:1002300032C212CB12C2019B98420BD0012301A9FA
:100240009A005258824206D00133052BF8D1002083
:1002500007B030BD0023D8B2FAE7C0467C0E0000DC
:10026000F0B589B004000D0016000800854B9847D2
:10027000070006AB1B221A7001325A709A700132C5
:10028000DA701A7103AA804B143303CB03C21B88A4
:1002900013800023A360E3602361636123766376A8
:1002A000BA007A4BD4502560B378082B06D023715E
:1002B0002B880520DB0705D509B0F0BD1720FA070C
:1002C000FAD5F4E7EB7B1730DB06F5D42B889B07D8
:1002D000F2D4337C002B79D1337F002B00D081E026
:1002E0006B49086A7A0003ABD35A03430B62B378B5
:1002F000082B00D186E001A933780B7006ABDF5DD7
:100300003800644B98473800634B98473189B3886D
:100310000B43B178B279114319437378002B02D0A3
:1003200080231B0119432268D37B5BB2002BFBDBCC
:100330002980717B4B1E99418900B37B002B01D032
:10034000012319432268D37B5BB2002BFBDBFF2325
:100350002B71002905D02268D37B5BB2002BFBDB1D
:100360006971B17AF37A002B01D010231943337BE2
:10037000002B01D0202319432268D37B5BB2002BD2
:10038000FBDBA9712268D37B5BB2002BFBDB2379FB
:10039000042B3FD0082B5ED01720002B00D08BE71A
:1003A000D37B5BB2002BFBDB338D2B822268D37BAC
:1003B0005BB2002BFBDB738D2B832268D37B5BB29C
:1003C000002BFBDBB38D6B83002075E702A90123B3
:1003D0008B700022CA70327E0A704B70307D2F4BBA
:1003E000984779E702A901238B700022CA70243252
:1003F000B21812780A704B701F33F3181878274B15
:1004000098476DE7086A7A1C520003ABD35A03433E
:100410000B6270E7D37B5BB2002BFBDB2823F35C22
:100420002B742268D37B5BB2002BFBDB2923F35CAC
:100430002B752268D37B5BB2002BFBDB2A23F35C9A
:100440002B762268D37B5BB2002BFBDB2B23F35C88
:100450006B76002030E7D37B5BB2002BFBDBB36A0B
:100460002B612268D37B5BB2002BFBDBF36AAB61B1
:100470002268D37B5BB2002BFBDB336BEB6100208C
:100480001AE7C046250200007C0E00008400002010
:10049000000400401D0A000091090000E10A00006C
:1004A000931C9B001950022A09D0032A0CD0012367
:1004B00093401A00037E1343037600207047037EA7
:1004C000102213430376F8E7037E202213430376BA
:1004D000F3E7000070B58000164BC45823689D7B7D
:1004E000227E637E13401D40EB0706D4AB070BD47E
:1004F000EB0610D4AB0615D470BD2000A368984756
:10050000012322689373F1E72000E36898470223F0
:1005100022689373ECE72000236998471023226830
:100520009373E7E7200063699847236820229A7352
:10053000E2E7C0468400002010B50020014B984738
:1005400010BDC046D504000010B50120014B9847EE
:1005500010BDC046D504000010B50220014B9847DD
:1005600010BDC046D504000010B50320014B9847CC
:1005700010BDC046D504000010B50420014B9847BB
:1005800010BDC046D50400001723002A01D0180072
:1005900070478B00064A9B58002B03D0834205D03E
:1005A0001D23F4E7890088500023F0E70023EEE7DD
:1005B000440000201723002901D0180070470022B2
:1005C0001F2800D8024A01238340D3600023F4E7A8
:1005D0000018004070B50022104B1A70002310491B
:1005E0001F25104E0D4C0AE00D4908E02378013319
:1005F000DBB223700F2B10D800211F2BF4D9280059
:1006000018400122824008691042EFD00A619B0025
:100610009B59002BEAD09847E8E770BD980000206E
:1006200000180040440000200C4B1B68002B06D132
:10063000EFF31083002B07D00022094B1A70074AF2
:10064000136801331360704772B6BFF35F8F0022E7
:10065000044B1A700132024B1A70F0E720000020A0
:100660002400002000000020084B1A68013A1A609C
:100670001B68002B09D1064B1B78002B05D00122EB
:10068000044B1A70BFF35F8F62B6704720000020E2
:100690002400002000000020F0B583B001AC01254B
:1006A00065700027A770257021003E20064EB047D8
:1006B0008022D205054B9A612770657021000F20BA
:1006C000B04703B0F0BDC046D106000080440041F1
:1006D00000B583B001AB80221A700A785A704A784C
:1006E0009A708A78DA701900014B984703B000BD00
:1006F000E10A000070B50C490B6A047885784078EF
:100700000122104080014026B34303432A40D20116
:1007100080208343134303222240120203480340F4
:1007200013430B6270BDC04600080040FFFCFFFF92
:10073000082803D88000254B1B589F46172044E00B
:10074000234A136A02210B43136200203DE0204A32
:10075000936902210B439361002036E01C4A138AFF
:1007600002210B43138200202FE0194A938A0221B1
:100770000B439382002028E016490B6802221343A2
:100780000B60134B9A8419000E32CB681A42FCD0CE
:10079000104A91680E4BD96252689A6200229A847C
:1007A00019001032CB681A42FCD00A4B1B689BB26E
:1007B000074A9384002008E0054944228B5C02200C
:1007C00003438B54002000E0002070479C0E000083
:1007D000000800402800002030B585B0C222D200B9
:1007E0001A4B9A601A4A53681E218B4353600123A7
:1007F0006A4613700024174DE0B26946A8470134D9
:10080000252CF9D103A800244470012585700470BB
:10081000114B98470620114B9847114B9847114BA5
:100820001C725C729C72DC7201956B465C700623D4
:100830006A46137014725472694600200A4B984736
:1008400000200A4B984705B030BDC0460008004064
:10085000004000411D0A0000F506000031070000BD
:100860007108000000040040950800004D090000D8
:10087000064A936908210B4393610122044B1A70C5
:1008800019000B781342FCD17047C04600040040A9
:10089000000C004070B5060004000D782D020543E1
:1008A0004B78002B02D08023DB021D434B7A002BB8
:1008B00002D080231B031D434868012810D9431E22
:1008C000184234D1022830D90223002201325B00C1
:1008D0009842FBD812023243140080235B031D436D
:1008E0000B7A002B02D080239B031D43134A5378BD
:1008F0005BB2002BFBDB124B9847124B1E700F4A6A
:1009000053785BB2002BFBDB0C4B9C601A005378D6
:100910005BB2002BFBDB094A5368802149020B4084
:100920001D435560084B984770BD0022D2E7040272
:10093000344380239B021D43D2E7C046000C004095
:1009400029060000080C00406906000010B50400EC
:100950000B4A53785BB2002BFBDB0A4B98470A4BE0
:100960001C70074A53785BB2002BFBDB044A5168CA
:1009700080235B020B435360044B984710BDC04675
:10098000000C004029060000040C0040690600002D
:1009900010B50400064B9847064B1C70064A538856
:1009A0008021C9010B435380044B984710BDC046BA
:1009B00029060000020C0040000C004069060000FF
:1009C00010B504000F4B98470F4B1C700F4A53880B
:1009D0001B05180F53880E490B40538053880D494F
:1009E0000B40538011008022D2014B881342FCD16E
:1009F00006494A8803020648024013434B80064BCF
:100A0000984710BD29060000020C0040000C004071
:100A1000FFF0FFFFFFBFFFFF6906000010B50C7875
:100A200024020443024B9847A4B2024B5C8010BDE1
:100A3000C1090000000C004030B5D378002B35D13F
:100A40001378802B29D01B0680246402234354781A
:100A50000225AC4306D19478002C20D18024A40236
:100A6000234341605478013C012C1CD90D042D0C0A
:100A7000A024E4052C431C4384620D0CD0242406DE
:100A80002C431C438462D478002C22D15B031CD5F8
:100A90009378012B1ED0416117E00023D7E7C024D3
:100AA000E4022343DDE70D4C2340DFE741600C0403
:100AB000240CA023DB05234383620C0CD0231B06EC
:100AC00023438362D378002B03D15378013B012B5E
:100AD00002D930BD8161F8E78160FAE7FFFFFBFFD3
:100AE00010B50A00C1090023002904D14309DB0124
:100AF00005498C4663441F24204001218140180091
:100B0000024B984710BDC04600440041390A00001E
:100B10007047000010B5054B9847054B9847054BAB
:100B20009847054B9847054B984710BDD9070000DB
:100B300099060000110B00002D010000110B0000B0
:100B4000FEE70000F8B52A4A2A4B9A4211D01A0053
:100B5000294B9A420DD2294A03339B1A9B08013331
:100B60009B000022234822498C58845004329A4228
:100B7000FAD1234A234B9A420AD2D34321495B1824
:100B800003218B4304339B18002102C29342FCD102
:100B90001D4AFF211D4B8B439360FD3990235B0061
:100BA0001B4AD1501B4AD3780325AB43022423436D
:100BB000D370D3780C27BB4308263343D370164B2E
:100BC000987B30229043202210439873997BB9433D
:100BD000314399739A7BAA4322439A730F4A53680D
:100BE00080210B4353600E4B98470E4B9847FEE70E
:100BF000E80E000000000020040000200400002097
:100C000004000020B800002000ED00E0000000001B
:100C10000070004100500041004800410040004188
:100C2000350E0000090E000010B50120014B984759
:100C300010BDC046E90C000010B584B001AC200026
:100C4000074B98470F2301930023636001332372FE
:100C50000233E37221000F20024B984704B010BD0D
:100C600099010000AD01000010B500220F210448D9
:100C7000044B984700210F20034B984710BDC046F6
:100C8000290C000089050000B5050000124B1B78F7
:100C9000002B1FD0114B1B785BB2012B06D0104AE2
:100CA000126A120411D4012B14DC0AE08021C90558
:100CB0000C4AD1610021084A1170094A126A1204D3
:100CC00005D40133054A137004E0002B02DD013B1B
:100CD000024A13707047C0464100002040000020C7
:100CE0000044004180440041014B18707047C046E9
:100CF00041000020F8B5CE46474680B5214E224C33
:100D0000002231002000214DA8470222310020009E
:100D1000A847032231002000A84720681C4B9946B1
:100D200098471C4B98461B5C1F26334001252A0020
:100D30009A40194F3A60637E012213436376236819
:100D40005D731800C84743461B5C33402A009A4035
:100D50003A60637E10221343637610232268537334
:100D60001000C84743461B5C1E40B5403D60637E93
:100D7000202213436376236820225A730CBC9046CA
:100D80009946F8BD8D0C00009C000020A1040000D5
:100D900025020000C00E000000E100E010B58EB09A
:100DA00001AA002300211370937113810020507059
:100DB0009172D17211739173517311745361936174
:100DC00011771362536213855385938504339370AF
:100DD000E023DB009380F4212923D154074C0849F8
:100DE0002000084B98472268D37B5BB2002BFBDBCB
:100DF000138802210B4313800EB010BD9C0000200D
:100E0000002C00426102000010B5054B9847054BCD
:100E10009847054B9847054B9847054B9847FEE781
:100E2000150B00009D0D0000F50C0000390C0000B2
:100E3000690C000070B500260C4D0D4C641BA4100D
:100E4000A64209D1002600F03FF80A4D0A4C641B67
:100E5000A410A64205D170BDB300EB5898470136E7
:100E6000EEE7B300EB5898470136F2E7D40E0000E6
:100E7000D40E0000D40E0000D80E0000002C00425A
:100E8000003000420034004200380042003C004282
:100E90000008001000200040008000005C070000F7
:100EA0003C0700003C070000C80700004E07000098
:100EB0006A0700004007000078070000B80700003C
:100EC0001213141516000000F8B5C046F8BC08BC93
:100ED0009E467047DD000000F8B5C046F8BC08BC6F
:080EE0009E467047B5000000BA
:040EE8000100000005
:0400000300000B45A9
:00000001FF
